{
  "contractName": "Asignatura",
  "abi": [
    {
      "constant": true,
      "inputs": [],
      "name": "nombreAsignatura",
      "outputs": [
        {
          "internalType": "string",
          "name": "",
          "type": "string"
        }
      ],
      "payable": false,
      "stateMutability": "view",
      "type": "function"
    }
  ],
  "bytecode": "0x60806040526040518060400160405280600481526020017f54657374000000000000000000000000000000000000000000000000000000008152506000908051906020019061004f929190610062565b5034801561005c57600080fd5b50610107565b828054600181600116156101000203166002900490600052602060002090601f016020900481019282601f106100a357805160ff19168380011785556100d1565b828001600101855582156100d1579182015b828111156100d05782518255916020019190600101906100b5565b5b5090506100de91906100e2565b5090565b61010491905b808211156101005760008160009055506001016100e8565b5090565b90565b610186806101166000396000f3fe608060405234801561001057600080fd5b506004361061002b5760003560e01c8063e11c678a14610030575b600080fd5b6100386100b3565b6040518080602001828103825283818151815260200191508051906020019080838360005b8381101561007857808201518184015260208101905061005d565b50505050905090810190601f1680156100a55780820380516001836020036101000a031916815260200191505b509250505060405180910390f35b60008054600181600116156101000203166002900480601f0160208091040260200160405190810160405280929190818152602001828054600181600116156101000203166002900480156101495780601f1061011e57610100808354040283529160200191610149565b820191906000526020600020905b81548152906001019060200180831161012c57829003601f168201915b50505050508156fea265627a7a723158209cccd278b8ff9ac01183c30145ee1d676f49281c073ea1d30f1dc1eeaec9e33d64736f6c63430005100032",
  "source": "/* Autores:\r\n Carlos Aznar\r\n Salomón Fereres\r\n Adrian Blázquez\r\n*/\r\n\r\n// SPDX-License-Identifier: MIT\r\npragma solidity ^0.5.15;\r\n\r\ncontract Asignatura {\r\n    string public nombreAsignatura = \"Test\";\r\n}",
  "sourcePath": "C:/Users/ablaz/WebstormProjects/P1/contracts/Asignatura.sol",
  "compiler": {
    "name": "solc",
    "version": "0.5.16+commit.9c3226ce.Emscripten.clang"
  },
  "schemaVersion": "3.3.1",
  "updatedAt": "2020-10-21T09:32:04.928Z",
  "devdoc": {
    "methods": {}
  },
  "userdoc": {
    "methods": {}
  }
}