{
  "contractName": "Asignatura",
  "abi": [
    {
      "inputs": [
        {
          "internalType": "string",
          "name": "_nombreAsignatura",
          "type": "string"
        },
        {
          "internalType": "string",
          "name": "_cursoAcademico",
          "type": "string"
        }
      ],
      "payable": false,
      "stateMutability": "nonpayable",
      "type": "constructor"
    },
    {
      "constant": true,
      "inputs": [],
      "name": "cursoAcademico",
      "outputs": [
        {
          "internalType": "string",
          "name": "",
          "type": "string"
        }
      ],
      "payable": false,
      "stateMutability": "view",
      "type": "function"
    },
    {
      "constant": true,
      "inputs": [],
      "name": "direccionProfesor",
      "outputs": [
        {
          "internalType": "address",
          "name": "",
          "type": "address"
        }
      ],
      "payable": false,
      "stateMutability": "view",
      "type": "function"
    },
    {
      "constant": true,
      "inputs": [
        {
          "internalType": "uint256",
          "name": "",
          "type": "uint256"
        }
      ],
      "name": "matriculas",
      "outputs": [
        {
          "internalType": "address",
          "name": "",
          "type": "address"
        }
      ],
      "payable": false,
      "stateMutability": "view",
      "type": "function"
    },
    {
      "constant": true,
      "inputs": [],
      "name": "nombreAsignatura",
      "outputs": [
        {
          "internalType": "string",
          "name": "",
          "type": "string"
        }
      ],
      "payable": false,
      "stateMutability": "view",
      "type": "function"
    },
    {
      "constant": false,
      "inputs": [
        {
          "internalType": "string",
          "name": "_nombreEvaluacion",
          "type": "string"
        },
        {
          "internalType": "uint256",
          "name": "_fechaEvaluacion",
          "type": "uint256"
        },
        {
          "internalType": "uint256",
          "name": "_puntos",
          "type": "uint256"
        }
      ],
      "name": "creaEvaluacion",
      "outputs": [],
      "payable": false,
      "stateMutability": "nonpayable",
      "type": "function"
    },
    {
      "constant": true,
      "inputs": [],
      "name": "evaluacionesLength",
      "outputs": [
        {
          "internalType": "uint256",
          "name": "",
          "type": "uint256"
        }
      ],
      "payable": false,
      "stateMutability": "view",
      "type": "function"
    },
    {
      "constant": false,
      "inputs": [
        {
          "internalType": "string",
          "name": "_nombreAlumno",
          "type": "string"
        },
        {
          "internalType": "string",
          "name": "_emailAlumno",
          "type": "string"
        }
      ],
      "name": "automatricula",
      "outputs": [],
      "payable": false,
      "stateMutability": "nonpayable",
      "type": "function"
    },
    {
      "constant": true,
      "inputs": [],
      "name": "matriculasLength",
      "outputs": [
        {
          "internalType": "uint256",
          "name": "",
          "type": "uint256"
        }
      ],
      "payable": false,
      "stateMutability": "view",
      "type": "function"
    },
    {
      "constant": true,
      "inputs": [],
      "name": "quienSoy",
      "outputs": [
        {
          "internalType": "string",
          "name": "",
          "type": "string"
        },
        {
          "internalType": "string",
          "name": "",
          "type": "string"
        }
      ],
      "payable": false,
      "stateMutability": "view",
      "type": "function"
    },
    {
      "constant": true,
      "inputs": [
        {
          "internalType": "address",
          "name": "_direccion",
          "type": "address"
        }
      ],
      "name": "quienEs",
      "outputs": [
        {
          "internalType": "string",
          "name": "",
          "type": "string"
        },
        {
          "internalType": "string",
          "name": "",
          "type": "string"
        }
      ],
      "payable": false,
      "stateMutability": "view",
      "type": "function"
    },
    {
      "constant": false,
      "inputs": [
        {
          "internalType": "address",
          "name": "_direccionAlumno",
          "type": "address"
        },
        {
          "internalType": "uint256",
          "name": "_iEval",
          "type": "uint256"
        },
        {
          "internalType": "enum Asignatura.tipoNota",
          "name": "_nota",
          "type": "uint8"
        },
        {
          "internalType": "uint256",
          "name": "_calificacion",
          "type": "uint256"
        }
      ],
      "name": "califica",
      "outputs": [],
      "payable": false,
      "stateMutability": "nonpayable",
      "type": "function"
    },
    {
      "constant": true,
      "inputs": [
        {
          "internalType": "uint256",
          "name": "_iEval",
          "type": "uint256"
        }
      ],
      "name": "miNota",
      "outputs": [
        {
          "internalType": "enum Asignatura.tipoNota",
          "name": "",
          "type": "uint8"
        },
        {
          "internalType": "uint256",
          "name": "",
          "type": "uint256"
        }
      ],
      "payable": false,
      "stateMutability": "view",
      "type": "function"
    },
    {
      "constant": true,
      "inputs": [
        {
          "internalType": "address",
          "name": "_direccionAlumno",
          "type": "address"
        },
        {
          "internalType": "uint256",
          "name": "_iEval",
          "type": "uint256"
        }
      ],
      "name": "calificaciones",
      "outputs": [
        {
          "internalType": "uint256",
          "name": "",
          "type": "uint256"
        }
      ],
      "payable": false,
      "stateMutability": "view",
      "type": "function"
    }
  ],
  "bytecode": "0x60806040523480156200001157600080fd5b50604051620019a2380380620019a2833981810160405260408110156200003757600080fd5b81019080805160405193929190846401000000008211156200005857600080fd5b838201915060208201858111156200006f57600080fd5b82518660018202830111640100000000821117156200008d57600080fd5b8083526020830192505050908051906020019080838360005b83811015620000c3578082015181840152602081019050620000a6565b50505050905090810190601f168015620000f15780820380516001836020036101000a031916815260200191505b50604052602001805160405193929190846401000000008211156200011557600080fd5b838201915060208201858111156200012c57600080fd5b82518660018202830111640100000000821117156200014a57600080fd5b8083526020830192505050908051906020019080838360005b838110156200018057808201518184015260208101905062000163565b50505050905090810190601f168015620001ae5780820380516001836020036101000a031916815260200191505b506040525050508160009080519060200190620001cd92919062000230565b508060019080519060200190620001e692919062000230565b5033600260006101000a81548173ffffffffffffffffffffffffffffffffffffffff021916908373ffffffffffffffffffffffffffffffffffffffff1602179055505050620002df565b828054600181600116156101000203166002900490600052602060002090601f016020900481019282601f106200027357805160ff1916838001178555620002a4565b82800160010185558215620002a4579182015b82811115620002a357825182559160200191906001019062000286565b5b509050620002b39190620002b7565b5090565b620002dc91905b80821115620002d8576000816000905550600101620002be565b5090565b90565b6116b380620002ef6000396000f3fe608060405234801561001057600080fd5b50600436106100cf5760003560e01c80639e1d8f4b1161008c578063d017da1f11610066578063d017da1f14610632578063d27c3f3c14610701578063e11c678a14610758578063edbbafe9146107db576100cf565b80639e1d8f4b1461047d578063bbcc0ae01461049b578063c7918139146105c4576100cf565b806330322c9b146100d457806342a6dde214610139578063488cf4f51461019b57806353766883146101b957806361d4c6ad146102a85780638c406977146103fa575b600080fd5b610137600480360360808110156100ea57600080fd5b81019080803573ffffffffffffffffffffffffffffffffffffffff16906020019092919080359060200190929190803560ff16906020019092919080359060200190929190505050610825565b005b6101856004803603604081101561014f57600080fd5b81019080803573ffffffffffffffffffffffffffffffffffffffff16906020019092919080359060200190929190505050610949565b6040518082815260200191505060405180910390f35b6101a36109aa565b6040518082815260200191505060405180910390f35b6101c16109b7565b604051808060200180602001838103835285818151815260200191508051906020019080838360005b838110156102055780820151818401526020810190506101ea565b50505050905090810190601f1680156102325780820380516001836020036101000a031916815260200191505b50838103825284818151815260200191508051906020019080838360005b8381101561026b578082015181840152602081019050610250565b50505050905090810190601f1680156102985780820380516001836020036101000a031916815260200191505b5094505050505060405180910390f35b6103f8600480360360408110156102be57600080fd5b81019080803590602001906401000000008111156102db57600080fd5b8201836020820111156102ed57600080fd5b8035906020019184600183028401116401000000008311171561030f57600080fd5b91908080601f016020809104026020016040519081016040528093929190818152602001838380828437600081840152601f19601f8201169050808301925050505050505091929192908035906020019064010000000081111561037257600080fd5b82018360208201111561038457600080fd5b803590602001918460018302840111640100000000831117156103a657600080fd5b91908080601f016020809104026020016040519081016040528093929190818152602001838380828437600081840152601f19601f820116905080830192505050505050509192919290505050610c6f565b005b610402610e76565b6040518080602001828103825283818151815260200191508051906020019080838360005b83811015610442578082015181840152602081019050610427565b50505050905090810190601f16801561046f5780820380516001836020036101000a031916815260200191505b509250505060405180910390f35b610485610f14565b6040518082815260200191505060405180910390f35b6104dd600480360360208110156104b157600080fd5b81019080803573ffffffffffffffffffffffffffffffffffffffff169060200190929190505050610f21565b604051808060200180602001838103835285818151815260200191508051906020019080838360005b83811015610521578082015181840152602081019050610506565b50505050905090810190601f16801561054e5780820380516001836020036101000a031916815260200191505b50838103825284818151815260200191508051906020019080838360005b8381101561058757808201518184015260208101905061056c565b50505050905090810190601f1680156105b45780820380516001836020036101000a031916815260200191505b5094505050505060405180910390f35b6105f0600480360360208110156105da57600080fd5b81019080803590602001909291905050506111d8565b604051808273ffffffffffffffffffffffffffffffffffffffff1673ffffffffffffffffffffffffffffffffffffffff16815260200191505060405180910390f35b6106ff6004803603606081101561064857600080fd5b810190808035906020019064010000000081111561066557600080fd5b82018360208201111561067757600080fd5b8035906020019184600183028401116401000000008311171561069957600080fd5b91908080601f016020809104026020016040519081016040528093929190818152602001838380828437600081840152601f19601f8201169050808301925050505050505091929192908035906020019092919080359060200190929190505050611214565b005b61072d6004803603602081101561071757600080fd5b81019080803590602001909291905050506112fd565b6040518083600281111561073d57fe5b60ff1681526020018281526020019250505060405180910390f35b6107606114b5565b6040518080602001828103825283818151815260200191508051906020019080838360005b838110156107a0578082015181840152602081019050610785565b50505050905090810190601f1680156107cd5780820380516001836020036101000a031916815260200191505b509250505060405180910390f35b6107e3611553565b604051808273ffffffffffffffffffffffffffffffffffffffff1673ffffffffffffffffffffffffffffffffffffffff16815260200191505060405180910390f35b338073ffffffffffffffffffffffffffffffffffffffff16600260009054906101000a900473ffffffffffffffffffffffffffffffffffffffff1673ffffffffffffffffffffffffffffffffffffffff161461088057600080fd5b610888611579565b838160000190600281111561089957fe5b908160028111156108a657fe5b815250506064830281602001818152505080600560008873ffffffffffffffffffffffffffffffffffffffff1673ffffffffffffffffffffffffffffffffffffffff168152602001908152602001600020600201600087815260200190815260200160002060008201518160000160006101000a81548160ff0219169083600281111561092f57fe5b021790555060208201518160010155905050505050505050565b6000600560008473ffffffffffffffffffffffffffffffffffffffff1673ffffffffffffffffffffffffffffffffffffffff168152602001908152602001600020600201600083815260200190815260200160002060010154905092915050565b6000600380549050905090565b606080336060600560008373ffffffffffffffffffffffffffffffffffffffff1673ffffffffffffffffffffffffffffffffffffffff1681526020019081526020016000206000018054600181600116156101000203166002900480601f016020809104026020016040519081016040528092919081815260200182805460018160011615610100020316600290048015610a935780601f10610a6857610100808354040283529160200191610a93565b820191906000526020600020905b815481529060010190602001808311610a7657829003601f168201915b50505050509050600081511415610aa957600080fd5b600560003373ffffffffffffffffffffffffffffffffffffffff1673ffffffffffffffffffffffffffffffffffffffff168152602001908152602001600020600001600560003373ffffffffffffffffffffffffffffffffffffffff1673ffffffffffffffffffffffffffffffffffffffff168152602001908152602001600020600101818054600181600116156101000203166002900480601f016020809104026020016040519081016040528092919081815260200182805460018160011615610100020316600290048015610bc25780601f10610b9757610100808354040283529160200191610bc2565b820191906000526020600020905b815481529060010190602001808311610ba557829003601f168201915b50505050509150808054600181600116156101000203166002900480601f016020809104026020016040519081016040528092919081815260200182805460018160011615610100020316600290048015610c5e5780601f10610c3357610100808354040283529160200191610c5e565b820191906000526020600020905b815481529060010190602001808311610c4157829003601f168201915b505050505090509350935050509091565b336060600560008373ffffffffffffffffffffffffffffffffffffffff1673ffffffffffffffffffffffffffffffffffffffff1681526020019081526020016000206000018054600181600116156101000203166002900480601f016020809104026020016040519081016040528092919081815260200182805460018160011615610100020316600290048015610d485780601f10610d1d57610100808354040283529160200191610d48565b820191906000526020600020905b815481529060010190602001808311610d2b57829003601f168201915b505050505090506000815114610d5d57600080fd5b6060849050600081511415610d7157600080fd5b60043390806001815401808255809150509060018203906000526020600020016000909192909190916101000a81548173ffffffffffffffffffffffffffffffffffffffff021916908373ffffffffffffffffffffffffffffffffffffffff16021790555050610ddf61159e565b85816000018190525084816020018190525080600560003373ffffffffffffffffffffffffffffffffffffffff1673ffffffffffffffffffffffffffffffffffffffff1681526020019081526020016000206000820151816000019080519060200190610e4d9291906115b8565b506020820151816001019080519060200190610e6a9291906115b8565b50905050505050505050565b60018054600181600116156101000203166002900480601f016020809104026020016040519081016040528092919081815260200182805460018160011615610100020316600290048015610f0c5780601f10610ee157610100808354040283529160200191610f0c565b820191906000526020600020905b815481529060010190602001808311610eef57829003601f168201915b505050505081565b6000600480549050905090565b6060806060600560008573ffffffffffffffffffffffffffffffffffffffff1673ffffffffffffffffffffffffffffffffffffffff1681526020019081526020016000206000018054600181600116156101000203166002900480601f016020809104026020016040519081016040528092919081815260200182805460018160011615610100020316600290048015610ffc5780601f10610fd157610100808354040283529160200191610ffc565b820191906000526020600020905b815481529060010190602001808311610fdf57829003601f168201915b5050505050905060008151141561101257600080fd5b600560008573ffffffffffffffffffffffffffffffffffffffff1673ffffffffffffffffffffffffffffffffffffffff168152602001908152602001600020600001600560008673ffffffffffffffffffffffffffffffffffffffff1673ffffffffffffffffffffffffffffffffffffffff168152602001908152602001600020600101818054600181600116156101000203166002900480601f01602080910402602001604051908101604052809291908181526020018280546001816001161561010002031660029004801561112b5780601f106111005761010080835404028352916020019161112b565b820191906000526020600020905b81548152906001019060200180831161110e57829003601f168201915b50505050509150808054600181600116156101000203166002900480601f0160208091040260200160405190810160405280929190818152602001828054600181600116156101000203166002900480156111c75780601f1061119c576101008083540402835291602001916111c7565b820191906000526020600020905b8154815290600101906020018083116111aa57829003601f168201915b505050505090509250925050915091565b600481815481106111e557fe5b906000526020600020016000915054906101000a900473ffffffffffffffffffffffffffffffffffffffff1681565b338073ffffffffffffffffffffffffffffffffffffffff16600260009054906101000a900473ffffffffffffffffffffffffffffffffffffffff1673ffffffffffffffffffffffffffffffffffffffff161461126f57600080fd5b611277611638565b84816000018190525083816020018181525050828160400181815250506003819080600181540180825580915050906001820390600052602060002090600302016000909192909190915060008201518160000190805190602001906112de9291906115b8565b5060208201518160010155604082015181600201555050505050505050565b600080336060600560008373ffffffffffffffffffffffffffffffffffffffff1673ffffffffffffffffffffffffffffffffffffffff1681526020019081526020016000206000018054600181600116156101000203166002900480601f0160208091040260200160405190810160405280929190818152602001828054600181600116156101000203166002900480156113d95780601f106113ae576101008083540402835291602001916113d9565b820191906000526020600020905b8154815290600101906020018083116113bc57829003601f168201915b505050505090506000815114156113ef57600080fd5b600560003373ffffffffffffffffffffffffffffffffffffffff1673ffffffffffffffffffffffffffffffffffffffff168152602001908152602001600020600201600086815260200190815260200160002060000160009054906101000a900460ff16600560003373ffffffffffffffffffffffffffffffffffffffff1673ffffffffffffffffffffffffffffffffffffffff168152602001908152602001600020600201600087815260200190815260200160002060010154935093505050915091565b60008054600181600116156101000203166002900480601f01602080910402602001604051908101604052809291908181526020018280546001816001161561010002031660029004801561154b5780601f106115205761010080835404028352916020019161154b565b820191906000526020600020905b81548152906001019060200180831161152e57829003601f168201915b505050505081565b600260009054906101000a900473ffffffffffffffffffffffffffffffffffffffff1681565b60405180604001604052806000600281111561159157fe5b8152602001600081525090565b604051806040016040528060608152602001606081525090565b828054600181600116156101000203166002900490600052602060002090601f016020900481019282601f106115f957805160ff1916838001178555611627565b82800160010185558215611627579182015b8281111561162657825182559160200191906001019061160b565b5b5090506116349190611659565b5090565b60405180606001604052806060815260200160008152602001600081525090565b61167b91905b8082111561167757600081600090555060010161165f565b5090565b9056fea265627a7a7231582099aff69689fd75f02a9d9147168a24dc9cd080f4cd2238723fc78e25dfe478f364736f6c63430005100032",
  "source": "/* Autores:\r\n Carlos Aznar\r\n Salomón Fereres\r\n Adrian Blázquez\r\n*/\r\n\r\n// SPDX-License-Identifier: MIT\r\npragma solidity ^0.5.15;\r\n\r\n//Crear un contrato inteligente llamado Asignatura para representar una asignatura de la carrera.\r\ncontract Asignatura{\r\n\r\n    //Deben existir métodos para poder consultar el nombre y el curso academico de la asignatura creada.\r\n    //Y también para acceder a la dirección del profesor.\r\n    string public nombreAsignatura;\r\n    string public cursoAcademico;\r\n    address public direccionProfesor;\r\n// El constructor tomará como parámetros el nombre de la asignatura, y el curso académico. Ambos son strings.\r\n    constructor(string memory _nombreAsignatura, string memory _cursoAcademico) public{\r\n        nombreAsignatura = _nombreAsignatura;\r\n        cursoAcademico = _cursoAcademico;\r\n        direccionProfesor = msg.sender;\r\n    }\r\n\r\n    // Crear el método creaEvaluacion para crear una prueba de evaluacion de la asignatura.\r\n    // Por ejemplo, el primer parcial, o la práctica 3. Tomará como parámetros el nombre de la evaluación (string),\r\n    //la fecha de evaluación (uint) y los puntos que proporcionará a la nota final.\r\n    //Las evaluaciones se meterán en un array, y nos referiremos a ellas por su posición en el array.\r\n    struct Evaluacion{\r\n        string nombreEvaluacion;\r\n        uint fechaEvaluacion;\r\n        uint puntos;\r\n    }\r\n\r\n    Evaluacion[] evaluaciones;\r\n\r\n    function creaEvaluacion(string memory _nombreEvaluacion, uint _fechaEvaluacion, uint _puntos) public soloProfesor(msg.sender){\r\n        Evaluacion memory e;\r\n        e.nombreEvaluacion = _nombreEvaluacion;\r\n        e.fechaEvaluacion = _fechaEvaluacion;\r\n        e.puntos = _puntos;\r\n        evaluaciones.push(e);\r\n    }\r\n\r\n    // Cree el método evaluacionesLength que devuelve el número de evaluaciones creadas.\r\n    function evaluacionesLength() view public returns (uint) {\r\n        return evaluaciones.length;\r\n    }\r\n\r\n    //Los alumnos pueden automatricularse con el metodo automatricula, que toma como parámetros el nombre y el email del alumno.\r\n    //Ambos son strings. Impedir que se pueda meter un nombre vacio.\r\n\r\n    struct Alumno{\r\n        string nombreAlumno;\r\n        string emailAlumno;\r\n        mapping (uint => Nota) notas;\r\n    }\r\n\r\n    address[] public matriculas;\r\n    mapping(address => Alumno) alumnosMatriculados;\r\n\r\n    function automatricula(string memory _nombreAlumno, string memory _emailAlumno) public noMatriculados(msg.sender){\r\n        bytes memory enBytes = bytes(_nombreAlumno);\r\n        require(enBytes.length!=0);\r\n\r\n        matriculas.push(msg.sender); // Guarda la dirección del que lo llama.\r\n\r\n        Alumno memory a;\r\n        a.nombreAlumno = _nombreAlumno;\r\n        a.emailAlumno = _emailAlumno;\r\n        alumnosMatriculados[msg.sender]=a;\r\n    }\r\n\r\n    // El método matriculasLength devuelve el número de alumnos matriculados.\r\n    function matriculasLength() view public returns (uint) {\r\n        return matriculas.length;\r\n    }\r\n\r\n    // Crear el método quienSoy que devuelve el nombre y el email del alumno que invoca el método.\r\n    function quienSoy() soloMatriculados(msg.sender) view public returns (string memory, string memory){\r\n        return (alumnosMatriculados[msg.sender].nombreAlumno, alumnosMatriculados[msg.sender].emailAlumno);\r\n    }\r\n\r\n    // Crear un método que devuelva los datos del alumno (nombre y email) dada su dirección.\r\n    function quienEs(address _direccion) view public returns (string memory, string memory){\r\n     // Comprueba si está el alumno matriculado.\r\n        bytes memory matriculado = bytes(alumnosMatriculados[_direccion].nombreAlumno);\r\n        require(matriculado.length!=0);\r\n\r\n        return (alumnosMatriculados[_direccion].nombreAlumno, alumnosMatriculados[_direccion].emailAlumno);\r\n    }\r\n\r\n    //Crear el método califica para poner una nota a un alumno en una asignatura. Tiene 4 parámetros:\r\n    // la dirección del alumno.\r\n    // el índice de una evaluación (en el array de evaluaciones).\r\n    // tipo de nota: 0 es NP, 1 es una nota normal, y 2 es MH. Crear un enumerado para el tipo.\r\n    // un uint con la calificación (multipilicada por 100 porque no hay decimales)\r\n\r\n    enum tipoNota {NP, normal, MH}\r\n\r\n    struct Nota{\r\n        tipoNota tN;\r\n        uint calificacion;\r\n    }\r\n\r\n    // Cada alumno tiene un array con notas\r\n\r\n    function califica(address _direccionAlumno, uint _iEval, tipoNota _nota, uint _calificacion) public soloProfesor(msg.sender){\r\n        Nota memory n;\r\n        n.tN = _nota;\r\n        n.calificacion = _calificacion*100;\r\n        alumnosMatriculados[_direccionAlumno].notas[_iEval] = n;\r\n    }\r\n\r\n    function miNota(uint _iEval) soloMatriculados(msg.sender) view public returns(tipoNota, uint) {\r\n        // Si está matriculado, halla la evalaución en evaluaciones y con el address del que invoca\r\n        // devuelve la nota\r\n        return (alumnosMatriculados[msg.sender].notas[_iEval].tN, alumnosMatriculados[msg.sender].notas[_iEval].calificacion);\r\n    }\r\n\r\n    // Crear el método calificaciones que devuelve la nota de una alumno en una evaluación.\r\n    // Toma como parámetros la dirección del alumno y el índice de la evaluación.\r\n    function calificaciones(address _direccionAlumno, uint _iEval) view public returns (uint){\r\n        return (alumnosMatriculados[_direccionAlumno].notas[_iEval].calificacion);\r\n    }\r\n\r\n    // Crear un modificador, llamado soloProfesor, para que las funciones creaEvaluacion y califica solo pueda ejecutarlas el profesor.\r\n    modifier soloProfesor (address sender){\r\n        require(direccionProfesor == sender);\r\n        _;\r\n    }\r\n\r\n    // Crear un modificador, llamado soloMatriculados, para que las funciones quienSoy y miNota solo pueda ejecutarlas un alumno matriculado.\r\n    modifier soloMatriculados (address sender){\r\n        bytes memory matriculado = bytes(alumnosMatriculados[sender].nombreAlumno);\r\n        require(matriculado.length!=0);\r\n        _;\r\n    }\r\n\r\n    // Crear un modificador, llamado noMatriculados, para que la función automatricula solo\r\n    //pueda ejecutarla un alumno que no se ha matriculado aun.\r\n    modifier noMatriculados (address sender){\r\n        bytes memory matriculado = bytes(alumnosMatriculados[sender].nombreAlumno);\r\n        require(matriculado.length==0);\r\n        _;\r\n    }\r\n}\r\n",
  "sourcePath": "C:/Users/ablaz/WebstormProjects/P1/contracts/Asignatura.sol",
  "compiler": {
    "name": "solc",
    "version": "0.5.16+commit.9c3226ce.Emscripten.clang"
  },
  "schemaVersion": "3.3.1",
  "updatedAt": "2020-10-25T12:31:00.428Z",
  "networkType": "ethereum",
  "devdoc": {
    "methods": {}
  },
  "userdoc": {
    "methods": {}
  }
}